{
  "contractName": "TBPoolJoinPool",
  "abi": [
    {
      "constant": true,
      "inputs": [],
      "name": "BONE",
      "outputs": [
        {
          "internalType": "uint256",
          "name": "",
          "type": "uint256"
        }
      ],
      "payable": false,
      "stateMutability": "view",
      "type": "function"
    },
    {
      "constant": true,
      "inputs": [],
      "name": "BPOW_PRECISION",
      "outputs": [
        {
          "internalType": "uint256",
          "name": "",
          "type": "uint256"
        }
      ],
      "payable": false,
      "stateMutability": "view",
      "type": "function"
    },
    {
      "constant": true,
      "inputs": [],
      "name": "EXIT_FEE",
      "outputs": [
        {
          "internalType": "uint256",
          "name": "",
          "type": "uint256"
        }
      ],
      "payable": false,
      "stateMutability": "view",
      "type": "function"
    },
    {
      "constant": true,
      "inputs": [],
      "name": "INIT_POOL_SUPPLY",
      "outputs": [
        {
          "internalType": "uint256",
          "name": "",
          "type": "uint256"
        }
      ],
      "payable": false,
      "stateMutability": "view",
      "type": "function"
    },
    {
      "constant": true,
      "inputs": [],
      "name": "MAX_BOUND_TOKENS",
      "outputs": [
        {
          "internalType": "uint256",
          "name": "",
          "type": "uint256"
        }
      ],
      "payable": false,
      "stateMutability": "view",
      "type": "function"
    },
    {
      "constant": true,
      "inputs": [],
      "name": "MAX_BPOW_BASE",
      "outputs": [
        {
          "internalType": "uint256",
          "name": "",
          "type": "uint256"
        }
      ],
      "payable": false,
      "stateMutability": "view",
      "type": "function"
    },
    {
      "constant": true,
      "inputs": [],
      "name": "MAX_FEE",
      "outputs": [
        {
          "internalType": "uint256",
          "name": "",
          "type": "uint256"
        }
      ],
      "payable": false,
      "stateMutability": "view",
      "type": "function"
    },
    {
      "constant": true,
      "inputs": [],
      "name": "MAX_IN_RATIO",
      "outputs": [
        {
          "internalType": "uint256",
          "name": "",
          "type": "uint256"
        }
      ],
      "payable": false,
      "stateMutability": "view",
      "type": "function"
    },
    {
      "constant": true,
      "inputs": [],
      "name": "MAX_OUT_RATIO",
      "outputs": [
        {
          "internalType": "uint256",
          "name": "",
          "type": "uint256"
        }
      ],
      "payable": false,
      "stateMutability": "view",
      "type": "function"
    },
    {
      "constant": true,
      "inputs": [],
      "name": "MAX_TOTAL_WEIGHT",
      "outputs": [
        {
          "internalType": "uint256",
          "name": "",
          "type": "uint256"
        }
      ],
      "payable": false,
      "stateMutability": "view",
      "type": "function"
    },
    {
      "constant": true,
      "inputs": [],
      "name": "MAX_WEIGHT",
      "outputs": [
        {
          "internalType": "uint256",
          "name": "",
          "type": "uint256"
        }
      ],
      "payable": false,
      "stateMutability": "view",
      "type": "function"
    },
    {
      "constant": true,
      "inputs": [],
      "name": "MIN_BALANCE",
      "outputs": [
        {
          "internalType": "uint256",
          "name": "",
          "type": "uint256"
        }
      ],
      "payable": false,
      "stateMutability": "view",
      "type": "function"
    },
    {
      "constant": true,
      "inputs": [],
      "name": "MIN_BOUND_TOKENS",
      "outputs": [
        {
          "internalType": "uint256",
          "name": "",
          "type": "uint256"
        }
      ],
      "payable": false,
      "stateMutability": "view",
      "type": "function"
    },
    {
      "constant": true,
      "inputs": [],
      "name": "MIN_BPOW_BASE",
      "outputs": [
        {
          "internalType": "uint256",
          "name": "",
          "type": "uint256"
        }
      ],
      "payable": false,
      "stateMutability": "view",
      "type": "function"
    },
    {
      "constant": true,
      "inputs": [],
      "name": "MIN_FEE",
      "outputs": [
        {
          "internalType": "uint256",
          "name": "",
          "type": "uint256"
        }
      ],
      "payable": false,
      "stateMutability": "view",
      "type": "function"
    },
    {
      "constant": true,
      "inputs": [],
      "name": "MIN_WEIGHT",
      "outputs": [
        {
          "internalType": "uint256",
          "name": "",
          "type": "uint256"
        }
      ],
      "payable": false,
      "stateMutability": "view",
      "type": "function"
    },
    {
      "constant": true,
      "inputs": [],
      "name": "echidna_no_bug_found",
      "outputs": [
        {
          "internalType": "bool",
          "name": "",
          "type": "bool"
        }
      ],
      "payable": false,
      "stateMutability": "view",
      "type": "function"
    },
    {
      "constant": true,
      "inputs": [],
      "name": "getColor",
      "outputs": [
        {
          "internalType": "bytes32",
          "name": "",
          "type": "bytes32"
        }
      ],
      "payable": false,
      "stateMutability": "view",
      "type": "function"
    },
    {
      "constant": false,
      "inputs": [
        {
          "internalType": "uint256",
          "name": "poolAmountOut",
          "type": "uint256"
        },
        {
          "internalType": "uint256",
          "name": "poolTotal",
          "type": "uint256"
        },
        {
          "internalType": "uint256",
          "name": "_records_t_balance",
          "type": "uint256"
        }
      ],
      "name": "joinPool",
      "outputs": [
        {
          "internalType": "uint256",
          "name": "",
          "type": "uint256"
        }
      ],
      "payable": false,
      "stateMutability": "nonpayable",
      "type": "function"
    }
  ],
  "bytecode": "0x60806040526000805460ff1916600117905534801561001d57600080fd5b506106298061002d6000396000f3fe608060405234801561001057600080fd5b506004361061012e576000357c0100000000000000000000000000000000000000000000000000000000900480639a86139b116100ca578063bc694ea21161008e578063bc694ea2146101ea578063c36596a614610171578063c6580d12146101f2578063e4a28a5214610133578063ec093021146101fa5761012e565b80639a86139b146101c2578063b0e0d136146101ca578063b7b800a4146101d2578063ba019dab146101da578063bc063e1a146101e25761012e565b806309a3bbe4146101335780631819aa421461014d578063189d00ca14610169578063218b5382146101715780632e6884451461017957806376c7a3c7146101a2578063867378c5146101aa5780639381cd2b146101b2578063992e2a92146101ba575b600080fd5b61013b610202565b60408051918252519081900360200190f35b61015561020f565b604080519115158252519081900360200190f35b61013b610218565b61013b61022c565b61013b6004803603606081101561018f57600080fd5b5080359060208101359060400135610238565b61013b610328565b61013b61033a565b61013b61034e565b61013b61035b565b61013b610367565b61013b61038b565b61013b610390565b61013b610395565b61013b61039a565b61013b6103aa565b61013b6103b6565b61013b6103bb565b6802b5e3af16b188000081565b60005460ff1681565b6402540be400670de0b6b3a76400005b0481565b670de0b6b3a764000081565b600068056bc75e2d6310000083111561025057600080fd5b670de0b6b3a764000083101561026557600080fd5b678ac7230489e8000082111561027a57600080fd5b620f424082101561028a57600080fd5b600061029685856103cb565b9050806102ed576040805160e560020a62461bcd02815260206004820152600f60248201527f4552525f4d4154485f415050524f580000000000000000000000000000000000604482015290519081900360640190fd5b8260006102fa8383610512565b90506000871161030957600080fd5b801561031457600080fd5b50506000805460ff19169055509392505050565b620f4240670de0b6b3a7640000610228565b64e8d4a51000670de0b6b3a7640000610228565b68056bc75e2d6310000081565b6704a03ce68d21555681565b7f42524f4e5a45000000000000000000000000000000000000000000000000000090565b600881565b600281565b600181565b600a670de0b6b3a7640000610228565b671bc16d674ec7ffff81565b600081565b6002670de0b6b3a7640000610228565b600081610422576040805160e560020a62461bcd02815260206004820152600c60248201527f4552525f4449565f5a45524f0000000000000000000000000000000000000000604482015290519081900360640190fd5b670de0b6b3a7640000830283158061044a5750670de0b6b3a764000084828161044757fe5b04145b61049e576040805160e560020a62461bcd02815260206004820152601060248201527f4552525f4449565f494e5445524e414c00000000000000000000000000000000604482015290519081900360640190fd5b600283048101818110156104fc576040805160e560020a62461bcd02815260206004820152601060248201527f4552525f4449565f494e5445524e414c00000000000000000000000000000000604482015290519081900360640190fd5b600084828161050757fe5b049695505050505050565b600082820283158061052c57508284828161052957fe5b04145b610580576040805160e560020a62461bcd02815260206004820152601060248201527f4552525f4d554c5f4f564552464c4f5700000000000000000000000000000000604482015290519081900360640190fd5b6706f05b59d3b200008101818110156105e3576040805160e560020a62461bcd02815260206004820152601060248201527f4552525f4d554c5f4f564552464c4f5700000000000000000000000000000000604482015290519081900360640190fd5b6000670de0b6b3a76400008261050756fea265627a7a72315820926c4f07582484bfe38c646bfcd053b4f67779f983561c84f87309f59b5f9c7d64736f6c634300050c0032",
  "source": "import \"../../BNum.sol\";\n\npragma solidity 0.5.12;\n\ncontract TBPoolJoinPool is BNum {\n\n    bool public echidna_no_bug_found = true;\n\n    // joinPool models the BPool.joinPool behavior for one token\n    // A bug is found if poolAmountOut is greater than 0\n    // And tokenAmountIn is 0\n    function joinPool(uint poolAmountOut, uint poolTotal, uint _records_t_balance)\n        public returns(uint)\n    {\n        // We constraint poolTotal and _records_t_balance\n        // To have \"realistic\" values\n        require(poolTotal <= 100 ether);\n        require(poolTotal >= 1 ether);\n        require(_records_t_balance <= 10 ether);\n        require(_records_t_balance >= 10**6);\n\n        uint ratio = bdiv(poolAmountOut, poolTotal);\n        require(ratio != 0, \"ERR_MATH_APPROX\");\n\n        uint bal = _records_t_balance;\n        uint tokenAmountIn = bmul(ratio, bal);\n\n        require(poolAmountOut > 0);\n        require(tokenAmountIn == 0);\n\n        echidna_no_bug_found = false;\n    }\n\n}",
  "sourcePath": "/Users/jerryfireman/Projects/augur-balancer-pool/contracts/test/echidna/TBPoolJoinPool.sol",
  "compiler": {
    "name": "solc",
    "version": "0.5.12+commit.7709ece9.Emscripten.clang"
  },
  "schemaVersion": "3.1.0",
  "updatedAt": "2020-09-11T15:54:28.746Z",
  "devdoc": {
    "methods": {}
  },
  "userdoc": {
    "methods": {}
  }
}