{
  "contractName": "Yes",
  "abi": [
    {
      "inputs": [
        {
          "internalType": "string",
          "name": "name",
          "type": "string"
        },
        {
          "internalType": "string",
          "name": "symbol",
          "type": "string"
        },
        {
          "internalType": "uint8",
          "name": "decimals",
          "type": "uint8"
        }
      ],
      "payable": false,
      "stateMutability": "nonpayable",
      "type": "constructor"
    },
    {
      "anonymous": false,
      "inputs": [
        {
          "indexed": true,
          "internalType": "address",
          "name": "src",
          "type": "address"
        },
        {
          "indexed": true,
          "internalType": "address",
          "name": "dst",
          "type": "address"
        },
        {
          "indexed": false,
          "internalType": "uint256",
          "name": "amt",
          "type": "uint256"
        }
      ],
      "name": "Approval",
      "type": "event"
    },
    {
      "anonymous": false,
      "inputs": [
        {
          "indexed": true,
          "internalType": "address",
          "name": "src",
          "type": "address"
        },
        {
          "indexed": true,
          "internalType": "address",
          "name": "dst",
          "type": "address"
        },
        {
          "indexed": false,
          "internalType": "uint256",
          "name": "amt",
          "type": "uint256"
        }
      ],
      "name": "Transfer",
      "type": "event"
    },
    {
      "constant": true,
      "inputs": [],
      "name": "name",
      "outputs": [
        {
          "internalType": "string",
          "name": "",
          "type": "string"
        }
      ],
      "payable": false,
      "stateMutability": "view",
      "type": "function"
    },
    {
      "constant": true,
      "inputs": [],
      "name": "symbol",
      "outputs": [
        {
          "internalType": "string",
          "name": "",
          "type": "string"
        }
      ],
      "payable": false,
      "stateMutability": "view",
      "type": "function"
    },
    {
      "constant": true,
      "inputs": [],
      "name": "decimals",
      "outputs": [
        {
          "internalType": "uint8",
          "name": "",
          "type": "uint8"
        }
      ],
      "payable": false,
      "stateMutability": "view",
      "type": "function"
    },
    {
      "constant": true,
      "inputs": [
        {
          "internalType": "address",
          "name": "src",
          "type": "address"
        },
        {
          "internalType": "address",
          "name": "dst",
          "type": "address"
        }
      ],
      "name": "allowance",
      "outputs": [
        {
          "internalType": "uint256",
          "name": "",
          "type": "uint256"
        }
      ],
      "payable": false,
      "stateMutability": "view",
      "type": "function"
    },
    {
      "constant": true,
      "inputs": [
        {
          "internalType": "address",
          "name": "whom",
          "type": "address"
        }
      ],
      "name": "balanceOf",
      "outputs": [
        {
          "internalType": "uint256",
          "name": "",
          "type": "uint256"
        }
      ],
      "payable": false,
      "stateMutability": "view",
      "type": "function"
    },
    {
      "constant": true,
      "inputs": [],
      "name": "totalSupply",
      "outputs": [
        {
          "internalType": "uint256",
          "name": "",
          "type": "uint256"
        }
      ],
      "payable": false,
      "stateMutability": "view",
      "type": "function"
    },
    {
      "constant": false,
      "inputs": [
        {
          "internalType": "address",
          "name": "dst",
          "type": "address"
        },
        {
          "internalType": "uint256",
          "name": "amt",
          "type": "uint256"
        }
      ],
      "name": "approve",
      "outputs": [
        {
          "internalType": "bool",
          "name": "",
          "type": "bool"
        }
      ],
      "payable": false,
      "stateMutability": "nonpayable",
      "type": "function"
    },
    {
      "constant": false,
      "inputs": [
        {
          "internalType": "address",
          "name": "dst",
          "type": "address"
        },
        {
          "internalType": "uint256",
          "name": "amt",
          "type": "uint256"
        }
      ],
      "name": "mint",
      "outputs": [
        {
          "internalType": "bool",
          "name": "",
          "type": "bool"
        }
      ],
      "payable": false,
      "stateMutability": "nonpayable",
      "type": "function"
    },
    {
      "constant": false,
      "inputs": [
        {
          "internalType": "uint256",
          "name": "amt",
          "type": "uint256"
        }
      ],
      "name": "burn",
      "outputs": [
        {
          "internalType": "bool",
          "name": "",
          "type": "bool"
        }
      ],
      "payable": false,
      "stateMutability": "nonpayable",
      "type": "function"
    },
    {
      "constant": false,
      "inputs": [
        {
          "internalType": "address",
          "name": "dst",
          "type": "address"
        },
        {
          "internalType": "uint256",
          "name": "amt",
          "type": "uint256"
        }
      ],
      "name": "transfer",
      "outputs": [
        {
          "internalType": "bool",
          "name": "",
          "type": "bool"
        }
      ],
      "payable": false,
      "stateMutability": "nonpayable",
      "type": "function"
    },
    {
      "constant": false,
      "inputs": [
        {
          "internalType": "address",
          "name": "src",
          "type": "address"
        },
        {
          "internalType": "address",
          "name": "dst",
          "type": "address"
        },
        {
          "internalType": "uint256",
          "name": "amt",
          "type": "uint256"
        }
      ],
      "name": "transferFrom",
      "outputs": [
        {
          "internalType": "bool",
          "name": "",
          "type": "bool"
        }
      ],
      "payable": false,
      "stateMutability": "nonpayable",
      "type": "function"
    }
  ],
  "bytecode": "0x60806040523480156200001157600080fd5b5060405162000bfc38038062000bfc833981810160405260608110156200003757600080fd5b81019080805160405193929190846401000000008211156200005857600080fd5b9083019060208201858111156200006e57600080fd5b82516401000000008111828201881017156200008957600080fd5b82525081516020918201929091019080838360005b83811015620000b85781810151838201526020016200009e565b50505050905090810190601f168015620000e65780820380516001836020036101000a031916815260200191505b50604052602001805160405193929190846401000000008211156200010a57600080fd5b9083019060208201858111156200012057600080fd5b82516401000000008111828201881017156200013b57600080fd5b82525081516020918201929091019080838360005b838110156200016a57818101518382015260200162000150565b50505050905090810190601f168015620001985780820380516001836020036101000a031916815260200191505b506040526020908101518551909350620001b99250600091860190620001fe565b508151620001cf906001906020850190620001fe565b506002805460ff191660ff929092169190911761010060a860020a031916610100330217905550620002a39050565b828054600181600116156101000203166002900490600052602060002090601f016020900481019282601f106200024157805160ff191683800117855562000271565b8280016001018555821562000271579182015b828111156200027157825182559160200191906001019062000254565b506200027f92915062000283565b5090565b620002a091905b808211156200027f57600081556001016200028a565b90565b61094980620002b36000396000f3fe608060405234801561001057600080fd5b50600436106100c6576000357c01000000000000000000000000000000000000000000000000000000009004806340c10f191161008e57806340c10f19146101f657806342966c681461022257806370a082311461023f57806395d89b4114610265578063a9059cbb1461026d578063dd62ed3e14610299576100c6565b806306fdde03146100cb578063095ea7b31461014857806318160ddd1461018857806323b872dd146101a2578063313ce567146101d8575b600080fd5b6100d36102c7565b6040805160208082528351818301528351919283929083019185019080838360005b8381101561010d5781810151838201526020016100f5565b50505050905090810190601f16801561013a5780820380516001836020036101000a031916815260200191505b509250505060405180910390f35b6101746004803603604081101561015e57600080fd5b50600160a060020a03813516906020013561035d565b604080519115158252519081900360200190f35b6101906103c4565b60408051918252519081900360200190f35b610174600480360360608110156101b857600080fd5b50600160a060020a038135811691602081013590911690604001356103ca565b6101e0610541565b6040805160ff9092168252519081900360200190f35b6101746004803603604081101561020c57600080fd5b50600160a060020a03813516906020013561054a565b6101746004803603602081101561023857600080fd5b50356105c7565b6101906004803603602081101561025557600080fd5b5035600160a060020a0316610696565b6100d36106b1565b6101746004803603604081101561028357600080fd5b50600160a060020a038135169060200135610711565b610190600480360360408110156102af57600080fd5b50600160a060020a038135811691602001351661071e565b60008054604080516020601f60026000196101006001881615020190951694909404938401819004810282018101909252828152606093909290918301828280156103535780601f1061032857610100808354040283529160200191610353565b820191906000526020600020905b81548152906001019060200180831161033657829003601f168201915b5050505050905090565b336000818152600560209081526040808320600160a060020a038716808552908352818420869055815186815291519394909390927f8c5be1e5ebec7d5bd14f71427d1e84f3dd0314c0f7b2291e5b200ac8c7c3b925928290030190a35060015b92915050565b60035490565b600033600160a060020a03851614806104065750600160a060020a03841660009081526005602090815260408083203384529091529020548211155b61045a576040805160e560020a62461bcd02815260206004820152601560248201527f4552525f42544f4b454e5f4241445f43414c4c45520000000000000000000000604482015290519081900360640190fd5b610465848484610749565b33600160a060020a038516148015906104a35750600160a060020a038416600090815260056020908152604080832033845290915290205460001914155b1561053757600160a060020a03841660009081526005602090815260408083203384529091529020546104d69083610855565b600160a060020a03858116600090815260056020908152604080832033808552908352928190208590558051948552519287169391927f8c5be1e5ebec7d5bd14f71427d1e84f3dd0314c0f7b2291e5b200ac8c7c3b9259281900390910190a35b5060019392505050565b60025460ff1690565b6002546000906101009004600160a060020a031633146105b4576040805160e560020a62461bcd02815260206004820152600d60248201527f4552525f4e4f545f4f574e455200000000000000000000000000000000000000604482015290519081900360640190fd5b6105be8383610865565b50600192915050565b3060009081526004602052604081205482111561062e576040805160e560020a62461bcd02815260206004820152601460248201527f4552525f494e53554646494349454e545f42414c000000000000000000000000604482015290519081900360640190fd5b306000908152600460205260409020546106489083610855565b306000908152600460205260409020556003546106659083610855565b60035560408051838152905160009130916000805160206108f58339815191529181900360200190a3506001919050565b600160a060020a031660009081526004602052604090205490565b60018054604080516020601f600260001961010087891615020190951694909404938401819004810282018101909252828152606093909290918301828280156103535780601f1061032857610100808354040283529160200191610353565b60006105be338484610749565b600160a060020a03918216600090815260056020908152604080832093909416825291909152205490565b600160a060020a0383166000908152600460205260409020548111156107b9576040805160e560020a62461bcd02815260206004820152601460248201527f4552525f494e53554646494349454e545f42414c000000000000000000000000604482015290519081900360640190fd5b600160a060020a0383166000908152600460205260409020546107dc9082610855565b600160a060020a03808516600090815260046020526040808220939093559084168152205461080b90826108e4565b600160a060020a0380841660008181526004602090815260409182902094909455805185815290519193928716926000805160206108f583398151915292918290030190a3505050565b808203828111156103be57600080fd5b600160a060020a03821660009081526004602052604090205461088890826108e4565b600160a060020a0383166000908152600460205260409020556003546108ae90826108e4565b600355604080518281529051600160a060020a038416916000916000805160206108f58339815191529181900360200190a35050565b808201828110156103be57600080fdfeddf252ad1be2c89b69c2b068fc378daa952ba7f163c4a11628f55a4df523b3efa265627a7a7231582055220f01c4b65652a3126932c3ada2f13fed49ab0616f841ab4caed9e219c93564736f6c634300050c0032",
  "source": "// This program is free software: you can redistribute it and/or modify\n// it under the terms of the GNU General Public License as published by\n// the Free Software Foundation, either version 3 of the License, or\n// (at your option) any later version.\n\n// This program is distributed in the hope that it will be useful,\n// but WITHOUT ANY WARRANTY; without even the implied warranty of\n// MERCHANTABILITY or FITNESS FOR A PARTICULAR PURPOSE.  See the\n// GNU General Public License for more details.\n\n// You should have received a copy of the GNU General Public License\n// along with this program.  If not, see <http://www.gnu.org/licenses/>.\n\npragma solidity 0.5.12;\n\n// Yes\n\ncontract Yes {\n\n    string private _name;\n    string private _symbol;\n    uint8   private _decimals;\n\n    address private _owner;\n\n    uint internal _totalSupply;\n\n    mapping(address => uint)                   private _balance;\n    mapping(address => mapping(address=>uint)) private _allowance;\n\n    modifier _onlyOwner_() {\n        require(msg.sender == _owner, \"ERR_NOT_OWNER\");\n        _;\n    }\n\n    event Approval(address indexed src, address indexed dst, uint amt);\n    event Transfer(address indexed src, address indexed dst, uint amt);\n\n    // Math\n    function add(uint a, uint b) internal pure returns (uint c) {\n        require((c = a + b) >= a);\n    }\n    function sub(uint a, uint b) internal pure returns (uint c) {\n        require((c = a - b) <= a);\n    }\n\n    constructor(\n        string memory name,\n        string memory symbol,\n        uint8 decimals\n    ) public {\n        _name = name;\n        _symbol = symbol;\n        _decimals = decimals;\n        _owner = msg.sender;\n    }\n\n    function name() public view returns (string memory) {\n        return _name;\n    }\n\n    function symbol() public view returns (string memory) {\n        return _symbol;\n    }\n\n    function decimals() public view returns(uint8) {\n        return _decimals;\n    }\n\n    function _move(address src, address dst, uint amt) internal {\n        require(_balance[src] >= amt, \"ERR_INSUFFICIENT_BAL\");\n        _balance[src] = sub(_balance[src], amt);\n        _balance[dst] = add(_balance[dst], amt);\n        emit Transfer(src, dst, amt);\n    }\n\n    function _push(address to, uint amt) internal {\n        _move(address(this), to, amt);\n    }\n\n    function _pull(address from, uint amt) internal {\n        _move(from, address(this), amt);\n    }\n\n    function _mint(address dst, uint amt) internal {\n        _balance[dst] = add(_balance[dst], amt);\n        _totalSupply = add(_totalSupply, amt);\n        emit Transfer(address(0), dst, amt);\n    }\n\n    function allowance(address src, address dst) external view returns (uint) {\n        return _allowance[src][dst];\n    }\n\n    function balanceOf(address whom) external view returns (uint) {\n        return _balance[whom];\n    }\n\n    function totalSupply() public view returns (uint) {\n        return _totalSupply;\n    }\n\n    function approve(address dst, uint amt) external returns (bool) {\n        _allowance[msg.sender][dst] = amt;\n        emit Approval(msg.sender, dst, amt);\n        return true;\n    }\n\n    function mint(address dst, uint256 amt) public _onlyOwner_ returns (bool) {\n        _mint(dst, amt);\n        return true;\n    }\n\n    function burn(uint amt) public returns (bool) {\n        require(_balance[address(this)] >= amt, \"ERR_INSUFFICIENT_BAL\");\n        _balance[address(this)] = sub(_balance[address(this)], amt);\n        _totalSupply = sub(_totalSupply, amt);\n        emit Transfer(address(this), address(0), amt);\n        return true;\n    }\n\n    function transfer(address dst, uint amt) external returns (bool) {\n        _move(msg.sender, dst, amt);\n        return true;\n    }\n\n    function transferFrom(address src, address dst, uint amt) external returns (bool) {\n        require(msg.sender == src || amt <= _allowance[src][msg.sender], \"ERR_BTOKEN_BAD_CALLER\");\n        _move(src, dst, amt);\n        if (msg.sender != src && _allowance[src][msg.sender] != uint256(-1)) {\n            _allowance[src][msg.sender] = sub(_allowance[src][msg.sender], amt);\n            emit Approval(msg.sender, dst, _allowance[src][msg.sender]);\n        }\n        return true;\n    }\n}\n",
  "sourcePath": "/Users/jerryfireman/Projects/Augur-Balancer-pool/contracts/Yes.sol",
  "compiler": {
    "name": "solc",
    "version": "0.5.12+commit.7709ece9.Emscripten.clang"
  },
  "schemaVersion": "3.1.0",
  "updatedAt": "2020-08-25T15:58:12.940Z",
  "networkType": "ethereum",
  "devdoc": {
    "methods": {}
  },
  "userdoc": {
    "methods": {}
  }
}